:100000000C9468000C94BB000C94CF000C948300FB
:100010000C9483000C9483000C9483000C94830054
:100020000C9483000C9483000C9483000C94830044
:100030000C9483000C9485000C9483000C94830032
:100040000C9483000C946E190C9483000C94141C73
:100050000C9483000C9483000C9483000C943E1C3D
:100060000C9483000C9483000C9483000C94830004
:10007000BDA1C6B92DCBD2817A33290C792A415F33
:1000800043AC71C1AF1F33C446E114289054823190
:10009000436F707972696768742028632920323051
:1000A000313420627920486578204D6963726F731E
:1000B000797374656D7320507479202620526F73A4
:1000C000732D546563682C204C4C432E0D0A0000A0
:1000D00011241FBECFEFD4E0DEBFCDBF11E0A0E002
:1000E000B1E0ECE2FAE302C005900D92A230B10754
:1000F000D9F713E0A2E0B1E001C01D92A43CB10722
:10010000E1F70C9453100C94000010B20F920FB64C
:100110000F931F930091AD0210918C02193070F46F
:10012000113018F4102299F41BC01091B1021695E9
:10013000102209F010681093B10212C0102239F099
:100140001091B10210938A0211E01093AE0212E0F6
:1001500019BF112702FD106403FD10681BBF1ABFF1
:10016000112410918C02139510938C021F910F9102
:100170000FBE0F9018950F930091B0020DBD009126
:10018000AF020CBD00E408BF829907C002E409BFBA
:100190001BBE1092B10210928C020F9118950F9312
:1001A0000091B0020DBD0091AF020CBD00E408BF8C
:1001B000839907C002E409BF1BBE1092B1021092DE
:1001C0008C020F911895E080F180028113810895CF
:1001D000A4E0EE0CFF1C001F111FAA95D1F7089593
:1001E000A5E016950795F794E794AA95D1F7089599
:1001F000A081EA0EA181FA1EA2810A1FA3811A1F03
:100200000895E20EF31E041F151F0895F72FE62F21
:10021000DADF0895F72FE62F3496D5DF08950E2CF8
:100220001F2C202E312E08950E241F242026312627
:100230000895A081A00DA193A081A11DA193A081EB
:10024000A21DA193A081A31DA1930895A081A0192F
:10025000A193A081A109A193A081A209A193A0814A
:10026000A309A19308951F930F93FF92EF923F92DA
:100270002F925527442733272227B0E2A9EB2A0FD4
:10028000A9E73A1FA7E34A1FAEE95A1FC3DFA0DF61
:10029000F92FE82FADDFC3DFBDDFB3DFC5DFBADF86
:1002A0009FDFF92FE82F3496A3DFBEDFF72FE62F6D
:1002B000C0DFACDF8DDFF92FE82F389699DFAFDF95
:1002C000A5DF9FDFB1DFA2DF8BDFF92FE82F3C96A0
:1002D0008FDFAADFF72FE62F3496ABDFBA9571F6E2
:1002E00011242F903F90EF90FF900F911F91089550
:1002F0001F930F93FF92EF923F922F9220E237E3EA
:100300004FEE56ECB0E282DF63DFF92FE82F38962C
:100310006FDF85DF7BDF75DF87DF78DF61DFF92F58
:10032000E82F3C9665DF80DFF72FE62F34968EDFCF
:1003300071DF4EDFF92FE82F5BDF71DF6BDF61DFED
:1003400073DF68DF4DDFF92FE82F349651DF6CDF64
:10035000F72FE62F7BDFA9EB2A1BA9E73A0BA7E3D0
:100360004A0BAEE95A0BBA9571F611242F903F90C3
:10037000EF90FF900F911F910895F89489B78771BE
:1003800089BF1EBC1BBE88B7806488BF80EC8ABF53
:1003900078948BB380788F668BBB8FEF8ABB88B3E2
:1003A000807188BB88EB87BB80EE85BB84BB83E311
:1003B00082BB82E381BB83E087B986B911B8089517
:1003C0000E94BD010895109204011092AD02282FE1
:1003D000332720FF06C080E28093040184E08093ED
:1003E000AD0221FF0AC08091040180648093040162
:1003F0008091AD0288608093AD02089580910401E0
:1004000099279C0195E0369527959A95E1F72170FB
:1004100086FD2260822F99270895809104019927F3
:1004200085FF02C0DA9801C0DA9A86FF02C0DB9825
:1004300001C0DB9ADC988091AD02992782FF02C04F
:10044000D89801C0D89A83FF02C0D9980895D99A44
:100450000895DA9ADB9A80910401992785FF02C0FA
:10046000DD9801C0DE9A86FF02C0DE9801C0DE9AE8
:100470008091AD02992782FF02C0D89801C0D89A16
:1004800083FF02C0D99801C0D99ADC9A08958730B9
:1004900059F0883019F0863019F404C086E805C098
:1004A00080E803C082E801C084E8613019F062305E
:1004B00021F402C0806301C08062423009F4886088
:1004C0008CBF089511B80895159BFECF169A83B975
:1004D0000895169BFECF0895FC01179B05C082B1BD
:1004E0008C7129F083B1808380E090E0089583B11E
:1004F000808381E090E008957F928F929F92AF92E7
:10050000BF92CF92DF92EF92FF920F931F93CF9300
:10051000DF93CDB7DEB762970FB6F894DEBF0FBE9C
:10052000CDBF93E09093B20279B619BE9EBD1DBCBB
:100530001CBC98B7906898BF209104014091AD020F
:100540009927FC01E170F070BC016270707080B39B
:10055000309711F082FF0CC06115710529F083FD01
:1005600003C020E448E006C008B607FEF0CFD1C0C3
:1005700020E244E080B3842351F7209304014093A8
:10058000AD02F89482E08EBD1DBC1CBC80B78160BA
:1005900080BF03C008B607FCC0C080B38423D1F37A
:1005A0008CB49DB480B38423C1F303C008B607FCA8
:1005B000B4C080B38423D1F7ACB4BDB480B384237A
:1005C000C1F703C008B607FCA8C080B38423D1F3E9
:1005D000CCB4DDB480B38423C1F303C008B607FCF8
:1005E0009CC080B38423D1F7ECB4FDB480B38423E2
:1005F000C1F703C008B607FC90C080B38423D1F3D1
:100600000CB51DB580B38423C1F303C008B607FC45
:1006100084C080B38423D1F7ACB5BDB580B3842347
:10062000C1F703C008B607FC78C080B38423D1F3B8
:10063000ECB5FDB580B38423C1F303C008B607FC55
:100640006CC080B38423D1F76CB57DB580B38423AF
:10065000C1F703C008B607FC60C080B38423D1F3A0
:100660002CB53DB580B38423C1F39A828982BC82C4
:10067000AB82DE82CD82F886EF821A870987BC873B
:10068000AB87FE87ED87788B6F873A8B298B1EBCF3
:1006900079BE789469817A81A901461B570B5093E2
:1006A0000301409302019A0113E0369527951A95AC
:1006B000E1F7CA01B4E096958795BA95E1F789010B
:1006C000080F191F281B390BFE013396A1E1EA2EF2
:1006D000F12CEC0EFD1EA081B181CD01861B970B84
:1006E0008217930718F00817190720F489E0809300
:1006F000B20213C0EE15FF0519F03296BD01EBCF23
:1007000041505040509303014093020181E090E03A
:1007100015C0209304014093AD021092B0021092D4
:10072000AF0210920301109202011092AD021092DA
:1007300004011EBC79BE789480E090E062960FB60A
:10074000F894DEBF0FBECDBFDF91CF911F910F9107
:10075000FF90EF90DF90CF90BF90AF909F908F90E1
:100760007F900895209102013091030121153105F8
:1007700029F420E030E040E050E00EC02F5F3F4F12
:10078000442755276091BC037091BD038091BE033F
:100790009091BF030E94B11CCA01B901089589B7A5
:1007A000877189BF89E08EBD80910201909103011C
:1007B000CB9730F48BE390E0909303018093020198
:1007C00080910201909103019BBD8ABD969587950A
:1007D0004A969093B0028093AF028091AD02282F89
:1007E000332722FF09C085B7826085BF85B78E7F1A
:1007F00085BF8BB780648BBF23FF09C085B7886036
:1008000085BF85B78B7F85BF8BB780688BBF80EC3A
:100810008ABF089599B7977199BF1BBE90EC9ABF94
:10082000282F332731609BB350910401452F409509
:1008300094231DBC1CBC9BBB88B7806488BF20FD73
:1008400002C0942301C0952B3695279508B606FE65
:10085000FDCF9BBB88B7806488BF2115310579F730
:1008600008B606FEFDCF8091AD02282F332722FF68
:1008700009C085B7826085BF85B78E7F85BF8BB77E
:1008800080648BBF23FF09C085B7886085BF85B7AB
:100890008B7F85BF8BB780688BBF80EC8ABF089544
:1008A00099B7977199BF1BBE90EC9ABF282F332739
:1008B00031604BB370910401672F609546231DBCD6
:1008C0001CBC4BBB88B7806488BF90918902A09103
:1008D0008B0220FD02C0462301C0472B3695279589
:1008E0005F9B16C09E5F592F5F7192505A1779F027
:1008F0008BB1E92FFF27E357FD4F80838CB19F5FBA
:10090000E92FFF27E357FD4F8083952F01C08CB15E
:1009100008B606FEFDCF4BBB88B7806488BF2115A3
:100920003105B9F69093890208B606FEFDCF809195
:10093000AD02282F332722FF09C085B7826085BF0B
:1009400085B78E7F85BF8BB780648BBF23FF09C0BF
:1009500085B7886085BF85B78B7F85BF8BB780687B
:100960008BBF80EC8ABF0895FC018091AE02882382
:1009700019F480E090E0089580918A0280831092BB
:10098000AE0281E090E0089589B7877189BF8BE05E
:100990008EBD60E471E080E090E00E94F00B019772
:1009A00090930301809302019BBD8ABD9695879524
:1009B0009093B0028093AF028091AD02282F33272D
:1009C00022FF09C085B7826085BF85B78E7F85BF4E
:1009D0008BB780648BBF23FF09C085B7886085BF54
:1009E00085B78B7F85BF8BB780688BBF80EC8ABF54
:1009F00008950E94F00B01979093030180930201E8
:100A00000895CF93DF93C82FDD27D1608BE08EBD93
:100A100060E471E080E090E00E94F00B01979BBDE4
:100A20008ABD9BB39F7929B719BE1DBC1CBC9BBB5B
:100A300088B7806488BFC0FD02C09F7901C09066FE
:100A4000D695C79508B606FEFDCF9BBB88B78064D8
:100A500088BF209781F708B606FEFDCF1EBC29BFD0
:100A6000DF91CF91089528E121B91CBE2FE220B972
:100A700026E82CBF24E0660F771F881F991F2A9550
:100A8000D1F70E94F00B9C012150304004978D5FFC
:100A90009F4020F4832F99278CBF20B90895EF92AF
:100AA000FF920F931F93CF93DF93CDB7DEB760977D
:100AB0000FB6F894DEBF0FBECDBFE82E60910201E5
:100AC00070910301882799272AEF30E040E050E039
:100AD0000E94921C66507F4F8F4F9F4FFF2400272C
:100AE0001127A80197010E94921C20E030E24CE1FE
:100AF00050E00E94D31C29873A874B875C876D871B
:100B00007E878F87988BDE011196FE01399688E0EB
:100B100001900D928150E1F729813A814B815C81EE
:100B20008D819E81AF81B88580509041AE40B040AC
:100B300020F02F5F3F4F4F4F5F4FDA01C9018070A8
:100B40000097A105B10519F08FEF90E002C0822F48
:100B5000992760960FB6F894DEBF0FBECDBFDF9128
:100B6000CF911F910F91FF90EF9008950F931F93D6
:100B7000CF93DF93CDB7DEB722970FB6F894DEBFE1
:100B80000FBECDBF8C0184E08093B202CE010196EE
:100B90000E948C190DC08091AE02882349F080918B
:100BA0008A02F80180831092AE0281E090E008C0D2
:100BB000CE0101960E949319882369F380E090E0AA
:100BC00022960FB6F894DEBF0FBECDBFDF91CF9156
:100BD0001F910F910895982F9598000082E08FB98A
:100BE000779BFECF9FB9779BFECF6FB9779BFECFE8
:100BF000959A00000895982F9598000083E08FB98A
:100C0000779BFECF9FB9779BFECF1FB8779BFECF18
:100C10008FB1959A0000992708959598000080EA71
:100C20008FB9779BFECF1FB8779BFECF8FB1959A78
:100C30000000992708956E988CE58DB981E08EB9F2
:100C40009598000080EC8FB9779BFECF959A0000B5
:100C500080E800008150E9F7089560E88FE00E9485
:100C6000EB058EE00E94FB0520E030E0807E8038BE
:100C700011F421E030E0C90108950F931F93082F6C
:100C8000162F642F88E20E94EB05612F89E20E94F3
:100C9000EB05602F8AE20E94EB051F910F910895EA
:100CA000EF92FF920F931F93CF93DF93EB01882373
:100CB00011F480E206C0813019F080E090E01EC09F
:100CC00084E28E010F5F1F4FF82EF39468810E941B
:100CD000EB05EF2CE39469818F2D0E94EB05F80161
:100CE00061818E2D0E94EB050F5F1F4FF80161811E
:100CF0008E2D8F5F0E94EB0581E090E0DF91CF9118
:100D00001F910F91FF90EF900895EF92FF920F9334
:100D10001F93CF93DF93EB018823B1F0813011F45F
:100D200084E012C0823011F488E00EC0833011F4E8
:100D300080E10AC0843011F484E106C0853019F0E6
:100D400080E090E01EC088E18E010F5F1F4FF82EFB
:100D5000F39468810E94EB05EF2CE39469818F2D59
:100D60000E94EB05F80161818E2D0E94EB050F5F5B
:100D70001F4FF80161818E2D8F5F0E94EB0581E08E
:100D800090E0DF91CF911F910F91FF90EF90089528
:100D9000882311F480E606C0813019F080E090E0ED
:100DA000089580E70E94EB0581E090E0089567E0F8
:100DB0008DE00E94EB056FE08CE00E94EB0560E2A5
:100DC0008BE20E94EB0560E08FE00E94EB058EE075
:100DD0000E94FB0590E0807E09F091E081E0982779
:100DE000892F992708950F931F93CF93DF938C0139
:100DF000EB010E940D06992780FF04C0F8011082C4
:100E000080E909C081FD03C080E090E032C081E04C
:100E1000F801808384E9959800008FB9779BFECF15
:100E20001FB8779BFECF8FB18993FE011FB8779BC8
:100E3000FECF8FB181931FB8779BFECF8FB1819387
:100E40001FB8779BFECF8FB181931FB8779BFECFE2
:100E50008FB18193982F9F7006C01FB8779BFECFEC
:100E60008FB1819391509923C1F7959A000081E049
:100E700090E0DF91CF911F910F910895FF920F9312
:100E80001F93CF93DF93182FEB01882321F404E005
:100E900021E8F22E0CC0813021F400E192E8F92E15
:100EA00006C0823009F03BC000E484E8F82E0E94BE
:100EB0000D060823A1F595980000110F10641FB9C5
:100EC000779BFECF89918FB9FE01779BFECF8191F1
:100ED0008FB9779BFECF81918FB9779BFECF8191A0
:100EE0008FB9779BFECF80818FB9779BFECF3196EC
:100EF000982F9F7006C080818FB9779BFECF319667
:100F000091509923C1F7959A000095980000FFB879
:100F1000779BFECF959A000081E090E002C080E0D0
:100F200090E0DF91CF911F910F91FF900895CF93A3
:100F3000DF93EC019A9923C08CE20E94FB0585FFA8
:100F40001EC08DE20E94FB05888360E08DE20E9456
:100F5000EB059598000085E08FB9779BFECF8CE27A
:100F60008FB9779BFECF80E28FB9779BFECF1FB8FA
:100F7000779BFECF959A000081E090E002C080E070
:100F800090E0DF91CF9108950E942D06882319F4F7
:100F900081E090E0089560E08DE00E94EB0515BAD5
:100FA0008DE00E94FB05887319F082E090E00895BF
:100FB00080E285BB8DE00E94FB058873883019F0C4
:100FC00083E090E0089580E485BB8DE00E94FB05FE
:100FD0008873803119F084E090E0089580E885BB43
:100FE0008DE00E94FB058873803219F085E090E067
:100FF000089580EE85BB6CE08CE00E94EB0583B326
:10100000887119F086E090E008956CE18CE00E9410
:10101000EB0583B38871883019F087E090E008957C
:101020006CE28CE00E94EB0583B38871803119F08B
:1010300088E090E008950E941B0680E090E008950B
:101040001092BB0310923A031092B602109238032A
:1010500010923903109237030895DC018091380310
:10106000882341F090913A038091B502981728F0B7
:101070001092380380E090E00895E92FFF27E55CA7
:10108000FC4F80818C939F5F90933A0381E090E0C6
:1010900008958091380320E030E0882311F421E0A6
:1010A00030E0C9010895982F809138038823E1F733
:1010B0008DE480933B0383E080933C0390933D0356
:1010C0008EE393E008958091B60299270895809168
:1010D000B602882319F480E090E0089587EB92E04F
:1010E00008951092B6020895DC012BE333E0821BD1
:1010F0008F5F8093B50280933C0390E0F90102C0BA
:1011000081919827EA17FB07D9F79C9381E0809398
:10111000380380933A0380913B030E94941A089508
:10112000382FDA01809138038823E1F79DE490930A
:101130003B03862F8C5F80933C03282F2927309315
:101140003D032327EEE3F3E004C08D91282780833D
:10115000FA016150AF014F5F5F4F6F3FB1F72083DE
:1011600081E0809338032BE333E0942F921B90931C
:10117000B50280933A0380913B030E94941A08952C
:101180001F93182F80913903882341F083EB92E05D
:101190000E949319882349F0109239038091B60276
:1011A000882349F081E08093390367E083EB92E084
:1011B0000E948C194CC08091BB03882339F41335ED
:1011C00059F0109237031092BB03ECCF83EB92E0FF
:1011D0000E9493198823B9F563E083EB92E00E94A3
:1011E0008C198091BB03E82FFF27E954FD4F108332
:1011F00020913703212720933703982F9F5F9093E7
:10120000BB03903841F481E0809339031092370397
:101210001092BB03CACF9430D0F08091B8029817D7
:10122000B1F4222341F481E08093B60283EB92E093
:101230000E94AD1908C081E08093390367E083EB19
:1012400092E00E948C19109237031092BB031F91F9
:1012500008957727762F66276827792720E041E2CF
:1012600050E1CB01880F991F77FF04C0BC016427B0
:10127000752701C0BC012F5F283099F7CB01089575
:10128000CF93DF9340E050E0C1E0D0E0DE010E9468
:10129000EE1C602D7727CA010E942909AC01219616
:1012A000C131D10599F7A1E1B0E00E94EE1C202DDB
:1012B000892F9927281719F080E090E00CC0A2E14F
:1012C000B0E00E94EE1C802D90E0841391E081E05C
:1012D0009827892F9927DF91CF91089594988C9A18
:1012E0008FEF00008150E9F7949A849903C08F5FD3
:1012F0008F3FD9F7809307010895CF93DF93682F2D
:1013000077278827992769567940824D9741C1E40C
:10131000D1E02DEC3DE041E050E061157105810523
:10132000910521F461E070E080E090E00E94921C61
:101330006993E1E0C135DE0781F7DF91CF91089530
:10134000EF92FF921F93CF93DF93EC017B01829981
:1013500002C011E00AC0DD988AE00E940B1A829B4D
:1013600002C012E001C010E0DD9A839902C081E062
:101370000AC0DE988AE00E940B1A839B02C082E0BA
:1013800001C080E0DE9A1883F7018083DF91CF915E
:101390001F91FF90EF900895FF920F931F93CF93AB
:1013A000DF938C01F62EF694F694F69419C08081A2
:1013B00099918927819381E0C935D807C1F7B80190
:1013C00081E491E00E943301D801FE0138978D91AC
:1013D000819381E0E935F807D1F7085F1F4FFA9450
:1013E000FF2021F0F801C1E5D1E0E1CFDF91CF91FD
:1013F0001F910F91FF9008951F93CF93DF93EC01FE
:10140000162F16951695169521C08D91819381E022
:10141000E136F807D1F7BE0181E491E00E9478013E
:10142000FE01A1E5B1E080819D918927819381E052
:10143000A935B807C1F7E9E5F1E0189781918D93D7
:1014400081E0E136F807D1F728961150112321F0F9
:10145000DE01E9E5F1E0D9CFDF91CF911F91089549
:10146000EF92FF920F931F93CF93DF93162F7A0182
:10147000E9010E940105802F0E947C02882359F017
:101480000E94CF0367E070E0C7010E94B605882381
:1014900029F40E94BD0180E090E019C067E070E08F
:1014A000CE010E94B6058823A1F3112329F4888177
:1014B00080950E940A0402C01F3F39F0812F0E94CC
:1014C0000B1A888180950E940A0481E090E0DF91E8
:1014D000CF911F910F91FF90EF900895CF92DF92DF
:1014E000EF92FF920F931F93CF93DF93CDB7DEB7A9
:1014F0002A970FB6F894DEBF0FBECDBFCE0104967B
:101500000E94AD1963E0CE0102960E948C191092E0
:101510008B02109289020E94CF1A6B017C0180918C
:101520000501882321F087B18C7F87B902C03898E4
:10153000399A0E94D81A6CE1CE010696E8C08E0155
:101540000C5F1F4FC8010E949319882371F0C801D6
:101550000E94AD1980910501882311F43898399AB9
:1015600063E0CE0102960E948C19CE0101960E9482
:10157000B404813029F589810E94E81A809105011F
:10158000882319F087B18C7F87B96AE2CE0106966D
:101590000E948C198E010E5F1F4FC8010E94931983
:1015A000882371F0C8010E94AD198091050188233C
:1015B00011F43998389A63E0CE0104960E948C1990
:1015C0005F9BA7C05C9B5CC08CB10E94BD010E9468
:1015D000F81BC701B6010E947F1B64E6CE01089686
:1015E0000E94B1193DC00E9463088130C9F50E9474
:1015F0006708FC01DC011196818184509D012F5FF9
:101600003F4FFD0191819538A1F4843031F5F90106
:1016100061817281838194810E94F90440E050E0ED
:1016200060E08EEF0E9490080E9449088823A9F488
:10163000FBCF983091F4882381F440E050E060E0E3
:101640008EEF0E9490080E9449088823E1F383E00E
:101650000E942D1AF8940C9400000E94710807C093
:10166000CE0108960E94E019882309F4BCCF10929D
:101670008B02109289020E94D81A0E94CF0349C09F
:101680001CB1809105018823B1F0399A389A13C0B2
:10169000E92FFF27E357FD4F80819F5F90938B02D7
:1016A00084FD93CFE92FFF27E357FD4F10819F5F04
:1016B0009F7190938B02812F0E945004812F0E9472
:1016C000E81A90918B0280918902981709F780910E
:1016D0000501882319F087B18C7F87B96AE2CE01B2
:1016E00006960E948C198E010E5F1F4FC8010E9442
:1016F0009319882371F0C8010E94AD1980910501EA
:10170000882311F43998389A63E0CE0104960E9438
:101710008C19CE0106960E949319882309F40FCFE5
:101720000E94BD010E94F81BC701B6010E947F1BE9
:101730002A960FB6F894DEBF0FBECDBFDF91CF91D2
:101740001F910F91FF90EF90DF90CF900895CF926F
:10175000DF92EF92FF921F93CF93DF93182F40E019
:1017600050E060E08EEF0E9490080E9449088823B4
:10177000E1F3C12EDD2473E0E72EF12CEC20FD20F7
:10178000E114F10459F0812F0E94E3010E94290223
:1017900060E07BE480E090E00E943305C0E9D0E0A7
:1017A000FE011491C2FE03C0812F0E94941AE1141D
:1017B000F10429F0812F0E9464020E94690221969F
:1017C000F0E0CF3CDF0761F70E9462020E94BD019A
:1017D000DF91CF911F91FF90EF90DF90CF90089510
:1017E000EF92FF920F931F93CF93DF93CDB7DEB7A6
:1017F00060970FB6F894DEBF0FBECDBF7B018C01A2
:101800006091BC037091BD038091BE039091BF03B2
:10181000A80197010E94D31C29873A874B875C87D0
:101820006D877E878F87988BDE011196FE01399632
:1018300088E001900D928150E1F729813A814B8136
:101840005C8115950795F794E7948D819E81AF8112
:10185000B8858E159F05A007B10724F02F5F3F4F75
:101860004F4F5F4FC90160960FB6F894DEBF0FBEB1
:10187000CDBFDF91CF911F910F91FF90EF90089511
:101880001F93CF93DF93CDB7DEB724970FB6F894AD
:10189000DEBF0FBECDBF60E072EC81E090E00E9441
:1018A000330581E00E94E3010E9429028AE50E943B
:1018B000640262E3CE0102960E94B11906C0CE0115
:1018C00002960E94E019882341F5CE0101960E94FC
:1018D0006C028823A1F389818A35F9F482E00E94A1
:1018E000E3010E9429028DEB0E94640262E3CE01B3
:1018F00002960E94B11906C0CE0102960E94E0191C
:10190000882369F4CE0101960E946C028823A1F31A
:1019100089818D3B21F410E003C011E001C012E089
:101920000E9462020E94BD01812F992724960FB662
:10193000F894DEBF0FBECDBFDF91CF911F91089508
:10194000DF92EF92FF920F931F93CF93DF93CDB768
:10195000DEB725970FB6F894DEBF0FBECDBFCE0120
:1019600004960E94AD1963E0CE0102960E948C1984
:10197000A1E0DA2EEE24FF248E010C5F1F4FC80178
:101980000E949319882351F0C8010E94AD1938981C
:10199000399A63E0CE0102960E948C19DD2009F08D
:1019A00043C062E271E081E291E00E94F306882385
:1019B00071F1F0923001E0922F010894E11CF11CCA
:1019C000E1E2F1E0A1E3B1E080819D91892781937B
:1019D00081E0E133F807C1F780E18983AF0140512D
:1019E000504060E187EB0E9490088E010E5F1F4F10
:1019F000C8010E949319882351F0C8010E94AD19B3
:101A00003998389A63E0CE0104960E948C198E01B1
:101A10000F5F1F4FC8010E949707882329F0A80174
:101A200061E089EB0E9490080E946308882309F412
:101A3000A3CF0E946708FC01DC01119601810450CC
:101A4000FD0111811296198208C08D91E92FFF279F
:101A5000E85FFE4F80839F5F99839981901710F410
:101A6000993198F30E947108183BE9F5003109F0AB
:101A7000B7C0DD2009F0B4C0E8E0F1E0A1E3B1E0D7
:101A800080819D918927819381E0E831F807C1F732
:101A900080E189838091160190911701E816F9067B
:101AA00009F09EC0BF016F507040809108010E94F4
:101AB0003E07882309F494C00894E11CF11C8E01B0
:101AC0000E5F1F4FC8010E949319882309F491C02B
:101AD000C8010E94AD193998389A63E0CE01049686
:101AE0000E948C1986C0113B59F4002309F078C07C
:101AF0000E942D06882309F473C0F1E0DF2E79C01F
:101B0000123B61F4033009F06BC040910A0160910F
:101B10000901809108010E943D066BC0133B51F4FE
:101B2000053009F05DC069E071E0809108010E9414
:101B300050060BC0143B69F4053009F051C069E050
:101B400071E0809108010E948506882309F051C048
:101B500047C0153B51F4023009F042C060910901C1
:101B6000809108010E94C806F0CF163BA9F5093103
:101B700019F0002309F134C0809108010E947D0909
:101B8000E1E5F1E009E011E0D8018D918D0181934B
:101B9000B1E001311B07C1F788E0898360E1C8012A
:101BA0000E94FC09A1E3B1E0F80181918D9381E0ED
:101BB000E132F807D1F707C0E1E3F1E01192A1E0CB
:101BC000E134FA07D9F780E18983DD2091F00E94A2
:101BD000D706882369F404C0103A11F4002381F079
:101BE00080E28093B20242EB52E061E08FEF05C0E9
:101BF000DD2440E050E060E08EEF0E949008BCCE13
:101C000040E050E060E08EEF0E94900825960FB60D
:101C1000F894DEBF0FBECDBFDF91CF911F910F9122
:101C2000FF90EF90DF9008955F926F927F928F9276
:101C30009F92AF92BF92CF92DF92EF92FF920F935B
:101C40001F93CF93DF93CDB7DEB727970FB6F894E6
:101C5000DEBF0FBECDBF182F4A015B01622E502E92
:101C60007E2CCE0105960E94071ACE0102960E9494
:101C7000071A812F0E94E3010E942902C501B401C5
:101C80000E9433058824DD24EE24FF24CE0105962E
:101C90000E94E019882361F1CC2051F481E3809304
:101CA000B20242EB52E061E08FEF0E94900819C04F
:101CB0008FEF0E945308FC0181E381939F01DF01B4
:101CC00090E008C0E92FFF27EF59FE4F80818983FC
:101CD0008D939F5F9815B1F7C901880D911D0E94E2
:101CE0007408CE0105960E94071A8824EE24FF246A
:101CF000CE0102960E94E019882301F1399A389AA0
:101D00000C9801EE11E00FC0F801808189830E94D8
:101D10006402DA94662029F0DD2019F0862D0E94F5
:101D20000B1A0F5F1F4FDD2079F7169BFECF0C9A21
:101D30003898399ACE0102960E94071ACE01019670
:101D40000E946C02882309F47EC08E010B5F1F4F36
:101D5000652DC8010E94B1192981E82DFF27EF598F
:101D6000FE4F208380916101881610F4E20EF11C71
:101D70008394F0E88F1659F480E38093B20242EB2B
:101D800052E061E08FEF0E949008C80157C0282DF3
:101D90003327992702962817390709F054C0F9010B
:101DA000EF59FE4F32978F2D9927208132962817B1
:101DB000F1F4319780818E15D1F4772039F0DD2050
:101DC00029F0672DCE0102960E94B11984EC0E9481
:101DD00053089C01DC0190E007C0E92FFF27EF5971
:101DE000FE4F80818D939F5F9815B9F720C0CC205E
:101DF00051F482E38093B20242EB52E061E08FEF54
:101E00000E94900819C08FEF0E945308FC0182E3E2
:101E100081939F01DF0190E008C0E92FFF27EF5970
:101E2000FE4F808189838D939F5F9815B1F7C9011B
:101E3000880D911D0E947408CE0105960E94071A14
:101E40008824EE24FF240E946308882309F41ECF0F
:101E50000E946708FC01DC011196118114509D015C
:101E60002F5F3F4FFD018181853C01F5112311F169
:101E7000D901119690E08D918983E92FFF27EF51C9
:101E8000FE4F80839F5F9117B1F7772029F460E0C0
:101E9000CE0102960E94B11940E050E060E08EEF62
:101EA0000E9490080E947108D12EF0CE803A11F461
:101EB000112319F00E947108E9CE40E050E060E083
:101EC0008EEF0E9490080E9471080E94BD01279623
:101ED0000FB6F894DEBF0FBECDBFDF91CF911F913B
:101EE0000F91FF90EF90DF90CF90BF90AF909F90B9
:101EF0008F907F906F905F9008958F929F92AF9296
:101F0000BF92CF92EF92FF920F931F93CF93DF93E5
:101F1000CDB7DEB724970FB6F894DEBF0FBECDBFA6
:101F20004A015B01122F0E94E3010E942902C501B0
:101F3000B4010E9433054E2D602F812F0E9447026D
:101F4000CE0101960E946C02882319F089810E94BB
:101F5000941A0E946308882399F30E946708FC0181
:101F6000DC011196118114509D012F5F3F4FFD013F
:101F70008181813C99F5123018F379010894E11CB4
:101F8000F11C399A389A0C98F70181917F01898365
:101F9000CC2049F06C2DCE0102960E94B1198981A6
:101FA0000E94640203C00E94640206C0CE01029631
:101FB0000E94E0198823D1F3115031F7169BFECF10
:101FC0000C9A0E94710840E050E060E08EEF0E94A1
:101FD00090080E9471083898399AB2CF803A09F077
:101FE000AFCF112309F0ACCF40E050E060E08EEFBE
:101FF0000E9490080E9471080E94BD0124960FB6AD
:10200000F894DEBF0FBECDBFDF91CF911F910F912E
:10201000FF90EF90CF90BF90AF909F908F900895DA
:10202000CF92DF92EF92FF920F931F93D82E7A01F7
:102030008B01C22EF8940E94D81A1FBC85E08EBD79
:102040001DBC1CBC88B7806888BF8D2D0E94E30131
:102050000E942902C801B7010E94330541E06C2D9E
:1020600088E00E944702179BFECF82B18A7111F06F
:1020700083B1F9CFF3B00CB51DB53898399A85E521
:102080000E94E81A8AEA0E94E81A8F2D0E94E81A34
:10209000812F99270E94E81A802F0E94E81A87B1A1
:1020A0008C7F87B9E0CF2F923F924F925F926F92D1
:1020B0007F928F929F92AF92BF92CF92DF92EF92D8
:1020C000FF920F931F93CF93DF93CDB7DEB72C977B
:1020D0000FB6F894DEBF0FBECDBF04B600FC02C041
:1020E000EE2405C084B78E7F84BF51E0E52E14E056
:1020F000ECEBF3E0A0E2B0E0112E0E94F61C809120
:10210000BC039091BD03A091BE03B091BF0380506A
:102110009044A546B04081509048A641B04060F040
:1021200080E090E8A0E7B0E08093BC039093BD030B
:10213000A093BE03B093BF030E946E090E94E0010A
:102140000E9420080E94F81B0E947B190E941B0617
:10215000AE01485F5F4F2CE130E0D901FA01112E4A
:102160000E94F61C88859985AA85BB850196A11DCC
:10217000B11D88879987AA87BB87D901FA01112EDB
:102180000E94111DA4E1B0E00E94EE1C802D8C87FE
:10219000789487E00E942D1AABE1B0E00E94EE1C1B
:1021A000802D982F81508230F0F5923031F460E02C
:1021B00072EC81E090E00E947F1BEE2009F48DC05C
:1021C00064E0CE0104960E948C19CE0104960E9410
:1021D00093198823D1F3BE016E5F7F4FCE01019624
:1021E0000E94A0098981882321F48A81882309F427
:1021F00074C08E010C5F1F4FC8010E949319882381
:1022000061F067E0C8010E948C19389B04C087B157
:102210008C7F87B902C03998389A0E946308882356
:1022200009F05BC0E6CF64E0CE0104960E948C19F1
:10223000FF24FF2051F0829B02C0839903C0399A8A
:10224000389A2BC03898399A28C08E010C5F1F4FDE
:10225000C8010E949319882301F167E0C8010E9418
:102260008C19389B04C087B18C7F87B902C039981C
:10227000389ABE016E5F7F4FCE0101960E94A00981
:102280008981882351F48A81882339F483E00E946C
:10229000E3010E940D0241E0F42E0E9463088823AE
:1022A00041F20E946708FC01018112810E947108BD
:1022B000103A09F0BECF043009F0BBCF0E94BD0137
:1022C00084E60E940B1A40E050E060E08EEF0E942E
:1022D0009008CE0104960E94AD19A5E1B0E00E94DD
:1022E000EE1C802D8B3A41F526E130E0D9010E94A9
:1022F000FB1CF0930101E0930001EE20E9F0CF0117
:10230000805090488F5F9F47B8F4CF010897909313
:102310000101809300018A5A9F4F30F4E854F04045
:10232000F0930101E093000180910001909101017F
:10233000D9010C010E940C1DA8E1B0E00E94EE1C26
:10234000802DA9E1B0E00E94EE1C202D9927982F46
:102350008827820F911D8753914068F481E0809314
:10236000050109C0829B05C0839B03C03898399A38
:1023700002C0399A389A0E946308882399F33898E2
:10238000399A0E946708FC01DC0111960181045012
:102390007D010894E11CF11CFD0181811701089465
:1023A000211C311CFC85FB3A19F48B3008F07AC7EC
:1023B00021E0B22EB092B202813091F4002309F0F4
:1023C0008AC787B18C7F87B940E050E060E08EEF2C
:1023D0000E9490088EE00E942D1A0C94001F7BC76B
:1023E000823069F5002309F076C7A8E1B0E00E94C9
:1023F000EE1C802DC82EDD240C2DA9E1B0E00E943A
:10240000EE1C802D282E332482E00E945308FC010C
:102410001127102F0027020D111D9F012F5F3F4F25
:102420000056114018F4C082218203C0B08280E6B9
:102430008183F901319684E48193CF0117C28330FF
:1024400009F04BC0043009F046C70E94CF1A5B0167
:102450006C01F701E180F280038114810E94710810
:10246000C801B7010E941A1B882311F487E021C715
:1024700040E050E060E08EEF0E9490080E94490822
:102480008823E1F387E00E942D1AC801B7010E945A
:102490007F1B40E050E060E08DEF0E9490086EE00E
:1024A000CE0104960E948C190DC00E9463088823F7
:1024B00049F00E946708FC0112810E9471081E3FCA
:1024C00009F403C784E0E82EF12CEC0EFD1EC701D1
:1024D0000E949319882349F3E7C6803809F03FC06A
:1024E000023009F0F8C6F7010181F101F18040E006
:1024F00050E060E08EEF0E9490080E944908882317
:10250000E1F30E94CF1A5B016C010E948F1A802FA9
:102510000E94E3010E940D02FF20F1F70CC0829B94
:1025200002C0839903C0399A389A03C087B18C7F5F
:1025300087B9809905C06CE1CE0106960E948C197E
:10254000CE0106960E949319882349F30E94BD018B
:102550000E94F81BC601B5010E947F1BB9C68138D5
:1025600009F054C0023009F0B6C6F101618103E000
:102570009E01285F3F4FAE014D5F5F4FF7018181A4
:102580000E94300A882309F4F5C20E94B2037B013D
:102590008C0181E80E945308FC01E082F1820283F1
:1025A00013838B81848388858583CF0106960E945F
:1025B00074080E9449088823E1F30E94CF1A7B0126
:1025C0008C010E948F1A0E940D020CC0829B02C0D7
:1025D000839903C0399A389A03C087B18C7F87B931
:1025E000809905C06CE1CE0106960E948C19CE013F
:1025F00006960E949319882349F30E94BD010E9408
:10260000F81BC801B7010E947F1BD6C28438D1F5E0
:10261000802F8250823008F05EC6D1011D91F101F9
:10262000F180033021F4FD010181043008F003E062
:102630000E9471089E012D5F3F4FAE01485F5F4FC2
:102640006F2D812F0E94300A882309F493C20E94C3
:10265000B2037B018C0184E80E945308FC01E082F4
:10266000F18202831383888584838B818583CF01E4
:1026700006960E9474080E9449088823E1F30E948C
:102680006E0A9AC2863809F051C0002309F023C6A9
:102690000E94710840E050E060E08EEF0E949008D8
:1026A00081E00E94E3010E94C4040EC00E946308FE
:1026B000882351F00E946708FC0191818281803A51
:1026C00019F4943009F4F8C5CE0103960E94B404BD
:1026D000882361F30E94BD0184E60E940B1A87E8FB
:1026E0000E945308FC018B818193CF010E947408E2
:1026F0000E9449088823E1F30E940D02829B02C0D8
:10270000839903C0399A389A03C087B18C7F87B9FF
:102710000E946308882391F30E946708FC0191815D
:102720008281803A59F7943049F7C6C5833809F059
:102730005EC0013009F0CFC5D101DC9040E050E02F
:1027400060E08EEF0E9490080E9449088823E1F320
:102750000E94CF1A7B018C010E948F1A81E00E9497
:10276000E3010E940D028D2D0E947C028823B1F1AD
:102770000E94CF0367E070E0CE0108960E94B60584
:10278000882361F167E070E0CE0103960E94B605F0
:10279000882321F18B8180950E940A040E94BD014B
:1027A0000E94F81BC801B7010E947F1B0E94B20360
:1027B0007B018C018EE00E942D1A83E80E94530851
:1027C000FC01E082F18202831383888584838B81FC
:1027D0008583CF0106960E947408EEC10E94BD0158
:1027E0000E94F81BC801B7010E947F1BC3C1823839
:1027F000F9F4002309F06FC5BE01685F7F4FCE0179
:1028000003960E94A00982E80E945308DC018B8194
:10281000FD0181939F018885FD018183C901019696
:102820000E9474080E944908882309F051C5FACF14
:102830008430F9F4002309F04EC50E944009882332
:1028400011F485E036C584E00E945308AC01FC0118
:1028500021E030E0D9010E94EE1C802D81932F5F92
:102860003F4F21313105B1F7CA0140960E947408EB
:102870002FC5853049F5003109F02DC50E9440096A
:10288000882309F028C501E010E020E030E0D10104
:102890006D911D01D8010F5F1F4F062E0E94001D74
:1028A000C9010E9429099C010131110581F7A1E1AB
:1028B000B0E0892F9927082E0E94001DA2E1B0E008
:1028C000022E0E94001DFAC48B3009F072C0023043
:1028D00009F001C5F101E080F180F9E0FE1508F48E
:1028E00085C028E0E21629F410E8212E11E0312EEF
:1028F0000BC02E2C3324B5E0220C331CBA95E1F723
:1029000080E490E0280E391E8BE00E9453085C01A1
:102910000E94291A22B79927982F88273327822BBC
:10292000932BDC01BD01882777FD8095982F6501E9
:1029300001E511E02DEC3DE041E050E00E94921CE9
:10294000611571058105910521F461E070E080E079
:1029500090E0F80161938F01D6016D936D01E95507
:10296000F14061F78501085F1F4FE9E0EE1651F471
:10297000D801E1E6F2E081918D9322E0E138F2079F
:1029800071F0F9CFF80190E0D1010E94EE1C802D8A
:1029900081930894211C311C9F5F9032A9F78F2DE1
:1029A0000E947D0960E2C8010E94CC09C80180969E
:1029B0005DCF8C3009F04FC00A3209F08CC4D101D0
:1029C0000D91F101F1809D012F5F3F4FD901E1E5AC
:1029D000F1E08D91819341E0E935F407D1F7F8E01A
:1029E0002F2E312C220E331E0A3010F086E061C4E7
:1029F0008F2D0E947D0960E2C1010E94FC0909300F
:102A000071F4E1E6F2E0D1018D911D018193B2E014
:102A1000E138FB07C1F781E0809306014FC408301D
:102A200019F420E831E009C0202F3327E5E0220F18
:102A3000331FEA95E1F7205C3F4F90E0F10181916F
:102A40001F01D901082E0E94001D2F5F3F4F9F5F7D
:102A50009032A1F733C4803B71F4002309F03BC4EA
:102A600040E050E060E08EEF0E9490080E94710804
:102A70000E94A00C2DC48A3B79F4002309F02BC4DA
:102A80000E9471088AEB0E9453088C010E94C407BF
:102A9000D8018D938D0110C08B3B81F4002309F088
:102AA0001AC40E9471088BEB0E9453088C010E948B
:102AB000400CF80181938F01C801D8CE8C3BD1F432
:102AC000063009F008C4D1011C91F101C180D28007
:102AD000E380F480058140E050E060E08EEF0E94EA
:102AE00090080E947108202FB701A601812F0E9433
:102AF0001010F1C3803CF9F40B3009F0ECC3D101A4
:102B0000FC90F101418052806380748015810681C0
:102B1000E780C084A184828440E050E060E08EEFD2
:102B20000E9490080E947108212FB301A2018F2DED
:102B30000E947D0FCDC3823C09F042C0023009F0F3
:102B4000CAC3D101FC90F101118140E050E060E086
:102B50008EEF0E9490080E94710803E09E01285F9A
:102B60003F4FAE014D5F5F4F612F8F2D0E94300AA6
:102B7000882319F480E090E021C00E94B2036B0129
:102B80007C010E94BD0182EC0E9453088C010E94CE
:102B9000FE01D8018C93F801C182D282E382F482D3
:102BA0008B81858388858683C80107960E94740877
:102BB0000E9449088823E1F381E090E0182F66C362
:102BC000833CE9F4093009F086C3D101FC90F1019E
:102BD00081809280A380B48015810681E780C084C3
:102BE00040E050E060E08EEF0E9490080E94710883
:102BF000212FB501A4018F2D0E94140E69C38731C6
:102C000039F4002309F067C34CEB53E064E05AC386
:102C1000883169F5043009F05EC3F101808191814A
:102C2000A281B3818093BC039093BD03A093BE03A4
:102C3000B093BF0380509044A546B0408150904867
:102C4000A641B04060F080E090E8A0E7B0E080935B
:102C5000BC039093BD03A093BE03B093BF03ECEB02
:102C6000F3E0A0E2B0E0102E0E94111D27C3803ACD
:102C700021F4002309F02FC321C38830A1F40023DD
:102C800009F029C340E050E060E08EEF0E94900818
:102C90000E9449088823E1F383E00E942D1AF894EA
:102CA0000C94000018C3883909F0ABC0063008F452
:102CB00012C3D101BD90F1011181FD01A18082807B
:102CC00040E050E060E08EEF0E94900860EA78E219
:102CD00080E090E00E94F9048B2D992771E0C72EC7
:102CE000D12CC822D92280FDDD9862E0E62EF12C9D
:102CF000E822F92281FDDE98812F0E940B1AC11073
:102D0000DD9AEF2809F0DE9A56E0E52EF12CE20C70
:102D1000F31C102F16508A2D0E940B1A8B2D0E9427
:102D2000E3010E94CF030AC0D7018D917D018887FE
:102D30000E940A04882D0E940B1A11501123A1F73A
:102D40000E947108CE0108960E94B404882319F0ED
:102D500088850E94941A0E946308882399F30E9430
:102D60006708FC012181922F94508281893929F5CD
:102D7000923040F3399A389A45E0E42EF12CEE0E69
:102D8000FF1E122F16500AC0F70181917F0188871C
:102D90000E940A04882D0E940B1A11501123A1F7DA
:102DA0000E94710840E050E060E08EEF0E949008C1
:102DB0000E9471083898399AC5CF8A3989F49923C5
:102DC00009F640E050E060E08EEF0E9490080E941B
:102DD00071080E9449088823E1F30E946E0A78C2B4
:102DE000803A09F0AFCF992309F0ACCF40E050E032
:102DF00060E08EEF0E9490080E9471080E94BD0161
:102E000067C2893009F0BFC0093009F064C2D1013E
:102E1000FD908D0140E150E060E770E081E491E0D9
:102E20000E94891CB3E0FB16E1F1BF1540F0E1E020
:102E3000FE1671F0F2E0FF1609F027C21CC024E074
:102E4000F21609F45CC035E0F31609F01EC278C032
:102E5000B80181E491E00E943301F1018181928106
:102E6000A381B4818093C0039093C103A093C20354
:102E7000B093C30384C0B80181E491E00E9478015B
:102E8000F10181819281209100013091010182271D
:102E9000932792838183838190910701892783837C
:102EA0006EC0B80181E491E00E947801F101818156
:102EB000928190930101809300018BEAA5E1B0E03B
:102EC000082E0E94001D8091000190910101A6E151
:102ED000B0E00C010E940C1D81819281F8012281D9
:102EE000338182279327F10192838183F801248122
:102EF000358182279327F1019283818340C0B801F5
:102F000081E491E00E947801F101818191E08927BB
:102F10008183F801818190E689278183F101838192
:102F2000A8E1B0E00E94EE1C902D89278383848164
:102F3000A9E1B0E00E94EE1C902D892784831FC078
:102F4000B80181E491E00E947801F1018181A8E15A
:102F5000B0E0082E0E94001DF8018181A9E1B0E0D7
:102F6000082E0E94001DF1018181938189278183B0
:102F7000F8018181F10194818927F8018183A801F9
:102F800068E089E09FC18A3009F040C0083009F04C
:102F9000A2C1D101FD901D018D0140E150E060E82A
:102FA00070E081E491E00E94891CB10181E491E02C
:102FB0000E94780129E030E041E0D9010E94EE1C36
:102FC000802DF80191918F01981340E02F5F3F4FC2
:102FD0002F30310591F7442309F47DC1FF2049F4D6
:102FE0008FEFA4E1B0E0082E0E94001DE19B70C1AC
:102FF000FDCFF1E0FF1609F06EC18BEAA4E1B0E06D
:10300000082E0E94001DE19B63C1FDCF8C3C69F43A
:10301000013009F060C1D1018C91882319F4DF9847
:10302000C4984CC1DF9AC49A49C1803D41F5002340
:1030300009F051C18BB38093610288B3809362021F
:1030400085B38093630282B3809364028AB38093D2
:10305000650287B38093660284B38093670281B36D
:103060008093680289B38093690286B380936A0271
:1030700083B380936B0280B380936C021FC1813D48
:1030800009F5002309F027C180910601882309F47E
:1030900022C1809161028BBB8091620288BB8091CA
:1030A000630285BB8091640282BB809165028ABB0A
:1030B0008091660287BB8091670284BB8091680221
:1030C00081BBFCC0823D21F5002309F004C1809141
:1030D0000601882309F4FFC0009161021091620289
:1030E000E0906302F090640280E090E009C0F80193
:1030F00064910E9429090F5F1F4F0894E108F108AD
:10310000E114F104A1F79093620280936102D6C0AA
:10311000833DB9F4002309F0DEC0809106018823C5
:1031200009F4D9C0E0916102F0916202E062A1E687
:10313000B2E084918D93319622E0A138B207C9F7AD
:10314000BDC0843D39F5002309F0C5C0809106015A
:10315000882309F4C0C020916102309162029091ED
:103160006302913208F090E240E011C0E42FFF27A3
:103170002331310540F0D9010E94EE1C802DEF591A
:10318000FD4F808303C0EF59FD4F10824F5F4917F9
:1031900069F794C0853D41F4013009F09CC0D1012C
:1031A0008C910E94A70B94C08D3079F4002309F014
:1031B00092C0ABE1B0E00E94EE1C802D8887AE018A
:1031C000485F5F4F61E08DE07DC08E3069F4013073
:1031D00009F081C0F1018081ABE1B0E0082E0E94CE
:1031E000001DE199FECF6AC0893109F074C0013039
:1031F00009F071C0D101FC900E9453081C010E948B
:10320000291A22B79927982F88273327822B932BA7
:10321000FC01BF01882777FD8095982F610101E5AA
:1032200011E02DEC3DE041E050E00E94921C611560
:1032300071058105910521F461E070E080E090E086
:10324000D8016D938D01F60161936F01A955B140CD
:1032500061F78101085F1F4F84E0ACE1B0E0F80145
:10326000182E0E94F61CF101848785E0858786E090
:10327000868787E087878F2D0E947D0968E0C801D7
:103280000E94CC09C8010896F1CA10E00E9471089A
:10329000112309F070C842EB52E061E08FEF0E9409
:1032A000900869C881E005C0C601B5010E947F1B76
:1032B00082E08093B2020FC00E94BD0140E050E066
:1032C00060E08EEF0E94900803C0C7010E94AD1914
:1032D0000E94710850C80E947108DDCF78940F9346
:1032E0001F931FB7009181020395009381021FBFB6
:1032F0001F910F9118951092810285E083BF12BE35
:1033000088B7826088BF89B7826089BF089513BE7D
:1033100089B78D7F89BF0895FC0180918102860F56
:10332000818310820895FC01909181028081823016
:1033300071F0813079F08181981720F0981B97FF08
:1033400004C008C0891B87FF05C082E0808381E03C
:1033500090E0089580E090E00895FC0181E0808392
:1033600008950F931F93CF93DF93EC012091810277
:1033700002B71091810207FD122F7727882799271E
:1033800020E030E840E750E00E94921C605070431B
:10339000884F9F4F20E030EA4FE050E00E94B11C80
:1033A000200F311D812F9927982F8827280F391F2B
:1033B0003A8329831882DF91CF911F910F9108954D
:1033C000FC012091810232B78091810237FD822F6A
:1033D00020812230B1F02130B9F09927982F882729
:1033E000830F911D218132818217930720F0821B68
:1033F000930B2AF409C0281B390B37FF05C082E064
:10340000808381E090E0089580E090E00895FC01E1
:1034100081E080830895CF93DF93CDB7DEB7239704
:103420000FB6F894DEBF0FBECDBF682FCE01019658
:103430000E94B119CE0101960E94E0198823D1F3B0
:1034400023960FB6F894DEBF0FBECDBFDF91CF91AC
:1034500008958091810299270895CF93DF93CDB786
:10346000DEB722970FB6F894DEBF0FBECDBF9091A6
:103470008102980F9A831982CE0101960E949319B6
:103480008823D1F322960FB6F894DEBF0FBECDBFCE
:10349000DF91CF910895CF93DF93EC018091C0032A
:1034A0009091C103A091C203B091C3030097A105FD
:1034B000B10561F481E090E0A0E0B0E08093C0034A
:1034C0009093C103A093C203B093C3036091C00360
:1034D0007091C1038091C2039091C3032DEC3DE034
:1034E00041E050E00E94921C6093C0037093C103BE
:1034F0008093C2039093C303807090702091000169
:1035000030910101442755276217730784079507F7
:1035100018F0888180588883DF91CF9108951AB878
:103520008898919A899A0895CF93DF93CDB7DEB7A3
:1035300021970FB6F894DEBF0FBECDBF898380916F
:1035400082028823E1F3109282028091000190911F
:103550000101805E9F4F20F4CE0101960E944B1A1C
:1035600089818CB921960FB6F894DEBF0FBECDBF0E
:10357000DF91CF910895809183028823E1F3109227
:10358000830280918402992708958091830220E02C
:1035900030E0813011F421E030E0C90108956091FC
:1035A0008502709186028091870290918802089529
:1035B00081E0809382021092830210928502109221
:1035C0008602109287021092880288E18AB90895D3
:1035D000CF93DF93CDB7DEB721970FB6F894DEBF58
:1035E0000FBECDBF89835D9BFECF8091000190917E
:1035F0000101805E9F4F20F4CE0101960E944B1A7C
:1036000089818CB921960FB6F894DEBF0FBECDBF6D
:10361000DF91CF910895FC015F9903C080E090E0B5
:1036200008958CB1808381E090E0089581E08093DB
:1036300082020895EF92FF920F931F93CF93DF932F
:10364000CDB7DEB760970FB6F894DEBF0FBECDBF23
:103650007B018C0194E0EE0CFF1C001F111F9A955A
:10366000D1F76091BC037091BD038091BE0390912E
:10367000BF03A80197010E94D31C29873A874B8773
:103680005C876D877E878F87988BDE011196FE01A0
:10369000399688E001900D928150E1F729813A81B5
:1036A0004B815C8116950795F794E7948D819E81F7
:1036B000AF81B885E816F9060A071B0720F02150EC
:1036C00030404040504090E0235030404040504017
:1036D0002D5F3F404040504008F091E081E0982746
:1036E000892F992760960FB6F894DEBF0FBECDBF25
:1036F000DF91CF911F910F91FF90EF900895EF927E
:10370000FF920F931F93CF93DF93CDB7DEB76097F0
:103710000FB6F894DEBF0FBECDBF609385027093E5
:10372000860280938702909388027B018C01E4E0FB
:10373000EE0CFF1C001F111FEA95D1F76091BC032E
:103740007091BD038091BE039091BF03A8019701C2
:103750000E94D31C29873A874B875C876D877E87B9
:103760008F87988BDE011196FE01399688E00190D3
:103770000D928150E1F729813A814B815C81169548
:103780000795F794E7948D819E81AF81B885E816FF
:10379000F9060A071B0720F02150304040405040F6
:1037A000DA01C9010397A109B1098D5F9F40A040CB
:1037B000B04018F080E090E00EC080918202882333
:1037C000E1F3BB2757FDBA95A52F942F832F80BD1A
:1037D00029B981E090E060960FB6F894DEBF0FBE85
:1037E000CDBFDF91CF911F910F91FF90EF90089582
:1037F00081E0809382021092830280E09BE4A0E04B
:10380000B0E08093850290938602A0938702B093E4
:10381000880288ED8AB960E07BE480E090E00E9455
:103820007F1B86E880BD08951F920F920FB60F92FE
:1038300011242F933F934F935F936F937F938F93B5
:103840009F93AF93BF93EF93FF9381E080938302A5
:103850008CB1809384020E94C008FF91EF91BF91C8
:10386000AF919F918F917F916F915F914F913F9118
:103870002F910F900FBE0F901F9018951F920F92CF
:103880000FB60F9211240F931F932F933F934F93D3
:103890005F936F937F938F939F93AF93BF93EF93B8
:1038A000FF93CF93DF93CDB7DEB72197DEBFCDBFB8
:1038B0008E010F5F1F4FC8010E942D08882369F0F9
:1038C0008091000190910101805E9F4F18F4C80122
:1038D0000E944B1A89818CB903C081E080938202D7
:1038E0002196F894DEBFCDBFDF91CF91FF91EF918C
:1038F000BF91AF919F918F917F916F915F914F9108
:103900003F912F911F910F910F900FBE0F901F901D
:103910001895FB01DC0102C005900D92415050400A
:10392000D8F70895629FD001739FF001829FE00D48
:10393000F11D649FE00DF11D929FF00D839FF00D2E
:10394000749FF00D659FF00D9927729FB00DE11DDA
:10395000F91F639FB00DE11DF91FBD01CF011124B7
:103960000895A1E21A2EAA1BBB1BFD010DC0AA1FC0
:10397000BB1FEE1FFF1FA217B307E407F50720F0D8
:10398000A21BB30BE40BF50B661F771F881F991F53
:103990001A9469F760957095809590959B01AC019C
:1039A000BD01CF01089597FB092E05260ED057FDC6
:1039B00004D0D7DF0AD0001C38F4509540953095DC
:1039C00021953F4F4F4F5F4F0895F6F790958095A3
:1039D000709561957F4F8F4F9F4F0895E199FECF6E
:1039E000BFBBAEBBE09A11960DB20895F7DF01920E
:1039F0001A94E1F70895F2DFE02DF0DFF02D08953D
:103A0000E199FECFBFBBAEBB0DBA11960FB6F894CD
:103A1000E29AE19A0FBE0895F3DF012CF1DF112441
:103A200008950190EDDF1A94E1F70895FFFFEC246B
:103A3000E0B3949692C621DC38A9389741205BD533
:103A4000D1D1698963566438B39177F4DB3F388EFE
:103A5000BCD02A089F7786491C7D3B143CDA333B57
:103A6000DA06D8104F0DD71D4EE223150CF53E0A8D
:103A7000A407B4DFBB3DE8015F74125235D58966F7
:103A8000D4A93EF26C6E8981AB2A2969E1FF86FEDA
:103A9000620038052C43CD6CC937C7387738E5BE8E
:103AA0008761A41603A204CD93128FDAA18698D35E
:103AB000BC62C1613AAFC0F2226E62AD492CCFAB9D
:103AC000BAD711645BD0D067CE415F4F96B1FDF29B
:103AD0007BD654DB2FAA46FB31C1E99BF2D9D095A6
:103AE00037B38DC4BE2173B92461A1AF06A93CC10F
:103AF0006703FB5B515BE9EFBFD666E9BB666FE42A
:103B0000C49C201E72BD77295D175BE43A95DDAA3F
:103B10004792BDC9EAEB30369458E07FECFC3500A3
:103B20002A3AD35AC0CB6421400D97D57A9E6814A7
:103B3000E42AA30D4081A33878ED6045CDC2A95297
:103B40003036AD60F073C00896EB5C6A0EEC6667C9
:103B50000774B3109B46CB5D333DED23A5E1534085
:103B6000A038B6184ADF15462758B38B3DA65F0A22
:103B70007617F7B845622F0E8CF18F01BE80BB33EC
:103B800041E7F76B1634EA43BBFDA22050F5D96735
:103B9000FABC77EE85FC58B14DB14EC75EC86A9449
:103BA000DAEC773F9B9DC8661A8234118F005EE580
:103BB0005A0B3A9BA23CCCB03C24335DCEE1E7C922
:103BC00034EE3F7E224036190B8E6E4642F075EC85
:103BD00060AB48A5E54B157122F345AB56F2BA3CF4
:103BE0001796550EF345BCC458C95AA8B1ECA7E4C2
:103BF000D245A9F69651BB5EC6C68D993D236C533E
:103C00004A8CC3D956D5E2CDC7DDFF1D241D7A35B8
:103C100079806674FD7544DDF2431110CD9E847881
:103C2000977791C59318319D216F658EE2AA7848E8
:103C30001D05850961E03A586C15DBF64C888A123F
:103C4000C400C5BCF135309C2D2A95E434BC2983D1
:103C5000867B119C0CBA2436FDE2F335030C0689F1
:103C60009ACE69A5B9546832B5B39605627B144FF4
:103C70007B8B0F14442A8BDF6D535FB33A4F814423
:103C8000E18A8467349F5FC87FB570DBB40EC115CD
:103C9000C5DD895B5258F6BB840F295A397C83AD48
:103CA00061DB1FECA73C9FC455D62C4D719EB83BE1
:103CB0002C1886587E6DED320ABF591047B9922BE9
:103CC000E16A411B5D53B090FDBED142E352822BAD
:103CD00078E50FF30F91F8ACC60AF5BFAD2E382684
:103CE0002BDEF2DC9D0D18923F1667A45053A64BB5
:103CF00071EB2B144FEBA0918199074EB405FC0694
:103D000005E03A17AE916134E586F75A01C8AC0573
:103D1000DFD3E2A384A46C49031396A5A1636634A0
:103D2000381822B4D90812DDB5B5874C3EDA1DC06B
:103D300089443C88F7E3E53C1421ABACBF72FF1625
:103D40008C2DB19C669AB4F4794C22624FB17FE31A
:103D500038E742ABF0D191D27C6B4D4B555A4E15A2
:103D6000C8C8F0B59D6ECEE3F7F2CD847B745DD804
:103D7000B464FBF5B696FA740298846AAA43DC9A96
:103D8000B690E5E8C5ADE811F850929A0B4C3C06A8
:103D9000C562704C9359A888705058F107542F0B86
:103DA0001C2E9A1E287E8BE6430E788C4760A6D583
:103DB0003389A79ACD4222788C3DD2C8B4B5D1D1EF
:103DC000C349173D0C0A3DCAA2D3874277D922AD19
:103DD000C582AAC5AD7BF0AA1F05F9D7F98F4A5550
:103DE000738A622EBA798925DB47C8A4E3DE39F6E7
:103DF00044F581B67B299A88F050D6071E0A428185
:103E0000F8940FE60BBB0FE70ABB00E008BB08E025
:103E100007BB02E202BB01BB03E000932700009353
:103E200026000FEF0DBF04E00EBFD4D0BB27AA279A
:103E3000882713E06DD0E894C0D00BEF0DBD00E8EB
:103E40000CBD08B7006808BF08B70078E9F304E4C0
:103E5000CAD02BD019F013E006E00EC005E188238C
:103E600031F01A95112341F49DD0A9F0C9CF222336
:103E7000C1F798D081F004E4B6D05EF793D001F694
:103E80009FD0A5D041F45F9BFCCFB2D00430C1F7E6
:103E900006E0A9D0F5CF0C94000092D098D019F488
:103EA0005F99A6D0FBCF1894089563D089D08FD0A6
:103EB000A1F70BB1087189F75F9BF9CF99D0222345
:103EC00021F4043011F4689421C057D0253878F3D8
:103ED00050D056D0013009F753D0F02E51D00F0DED
:103EE0000F3FD9F6F81691F0FA94F816B1F64BD0C8
:103EF00047D04ED02538E0F3542B79F683950EE366
:103F0000A030B00718F4D1E0C3E00CD09894089525
:103F100006EBD02E08E5E02E0895EE0CDD1CDD202A
:103F2000B9F30895FB2FEA2F93E01CD091E11AD04A
:103F300030E4099019900D24F0DF1D24EEDF91E0AC
:103F400011D032963A95A9F7BF2FAE2FE058F04026
:103F500095E008D091E106D007B706FF089591E1FA
:103F600001D0FACF07B700FDFDCF97BFE89500005D
:103F70000895E0E0F1E02227089501932395089544
:103F80000191239508954427552770E161E2089532
:103F9000502738E0440F551F10F4572746273A950D
:103FA000C9F70895F0DF5BEA46E7FF27EE270591A2
:103FB000EFDFFE33E0F3542B089503E00EBD0895C8
:103FC00000270DBD0CBD08B7006808BF089508B7ED
:103FD0000078089508E10AB900E000BD07E109B9D9
:103FE00006E800BD08955D9BFECF5E9A0CB908956A
:103FF0005F9BFECF0CB10895FFFFFFFFFFFFFFFFA8
:00000001FF
